:100000000C942A000C9434000C9434000C943400AA
:100010000C9434000C9434000C9434000C94340090
:100020000C9434000C9434000C9434000C94340080
:100030000C9434000C9434000C9434000C94340070
:100040000C9434000C9434000C9434000C94340060
:100050000C94340011241FBECFE5D8E0DEBFCDBF25
:100060000E9446000C945A000C940000379A3E9A65
:100070003F983098319A329A0895369A3D98349B39
:10008000FECF84B125B190E0922B08950E943600F6
:100090008D9A8E9A0E943D00843F91401CF4969A5E
:1000A0009598F8CF0E943D008F3F93409CF7959A1A
:0800B0009698F0CFF894FFCF01
:00000001FF
